{
  "contractName": "Betting",
  "abi": [
    {
      "inputs": [],
      "name": "eventCount",
      "outputs": [
        {
          "internalType": "uint256",
          "name": "",
          "type": "uint256"
        }
      ],
      "stateMutability": "view",
      "type": "function"
    },
    {
      "inputs": [
        {
          "internalType": "uint256",
          "name": "",
          "type": "uint256"
        }
      ],
      "name": "events",
      "outputs": [
        {
          "internalType": "string",
          "name": "description",
          "type": "string"
        },
        {
          "internalType": "uint256",
          "name": "totalBetAmount",
          "type": "uint256"
        },
        {
          "internalType": "bool",
          "name": "isClosed",
          "type": "bool"
        },
        {
          "internalType": "uint256",
          "name": "winningOutcome",
          "type": "uint256"
        }
      ],
      "stateMutability": "view",
      "type": "function"
    },
    {
      "inputs": [
        {
          "internalType": "string",
          "name": "_description",
          "type": "string"
        },
        {
          "internalType": "string[]",
          "name": "_outcomes",
          "type": "string[]"
        },
        {
          "internalType": "uint256[]",
          "name": "_odds",
          "type": "uint256[]"
        }
      ],
      "name": "createEvent",
      "outputs": [],
      "stateMutability": "nonpayable",
      "type": "function"
    },
    {
      "inputs": [
        {
          "internalType": "uint256",
          "name": "_eventId",
          "type": "uint256"
        },
        {
          "internalType": "uint256",
          "name": "_outcome",
          "type": "uint256"
        }
      ],
      "name": "placeBet",
      "outputs": [],
      "stateMutability": "payable",
      "type": "function"
    },
    {
      "inputs": [
        {
          "internalType": "uint256",
          "name": "_eventId",
          "type": "uint256"
        },
        {
          "internalType": "uint256",
          "name": "_winningOutcome",
          "type": "uint256"
        }
      ],
      "name": "closeEvent",
      "outputs": [],
      "stateMutability": "nonpayable",
      "type": "function"
    },
    {
      "inputs": [
        {
          "internalType": "uint256",
          "name": "_eventId",
          "type": "uint256"
        }
      ],
      "name": "claimWinnings",
      "outputs": [],
      "stateMutability": "nonpayable",
      "type": "function"
    }
  ],
  "bytecode": "0x608060405234801561000f575f80fd5b506113e38061001d5f395ff3fe608060405260043610610054575f3560e01c80630b791430146100585780631d40a813146100975780634afe62b5146100bf578063677bd9ff146100db57806371be2e4a146101035780637669a8d61461012d575b5f80fd5b348015610063575f80fd5b5061007e60048036038101906100799190610811565b610155565b60405161008e94939291906108ef565b60405180910390f35b3480156100a2575f80fd5b506100bd60048036038101906100b89190610939565b610212565b005b6100d960048036038101906100d49190610939565b6102a0565b005b3480156100e6575f80fd5b5061010160048036038101906100fc9190610811565b6103c1565b005b34801561010e575f80fd5b506101176105c8565b6040516101249190610977565b60405180910390f35b348015610138575f80fd5b50610153600480360381019061014e9190610c5e565b6105ce565b005b5f602052805f5260405f205f91509050805f01805461017390610d2f565b80601f016020809104026020016040519081016040528092919081815260200182805461019f90610d2f565b80156101ea5780601f106101c1576101008083540402835291602001916101ea565b820191905f5260205f20905b8154815290600101906020018083116101cd57829003601f168201915b505050505090806003015490806004015f9054906101000a900460ff16908060050154905084565b5f805f8481526020019081526020015f209050806004015f9054906101000a900460ff1615610276576040517f08c379a000000000000000000000000000000000000000000000000000000000815260040161026d90610da9565b60405180910390fd5b6001816004015f6101000a81548160ff021916908315150217905550818160050181905550505050565b5f805f8481526020019081526020015f209050806004015f9054906101000a900460ff1615610304576040517f08c379a00000000000000000000000000000000000000000000000000000000081526004016102fb90610e11565b60405180910390fd5b8060010180549050821061034d576040517f08c379a000000000000000000000000000000000000000000000000000000000815260040161034490610e79565b60405180910390fd5b34816006015f3373ffffffffffffffffffffffffffffffffffffffff1673ffffffffffffffffffffffffffffffffffffffff1681526020019081526020015f205f82825461039b9190610ec4565b9250508190555034816003015f8282546103b59190610ec4565b92505081905550505050565b5f805f8381526020019081526020015f209050806004015f9054906101000a900460ff16610424576040517f08c379a000000000000000000000000000000000000000000000000000000000815260040161041b90610f41565b60405180910390fd5b8060010180549050816005015410610471576040517f08c379a000000000000000000000000000000000000000000000000000000000815260040161046890610e79565b60405180910390fd5b5f816006015f3373ffffffffffffffffffffffffffffffffffffffff1673ffffffffffffffffffffffffffffffffffffffff1681526020019081526020015f205490505f670de0b6b3a7640000836002018460050154815481106104d8576104d7610f5f565b5b905f5260205f200154836104ec9190610f8c565b6104f69190610ffa565b90505f811161053a576040517f08c379a000000000000000000000000000000000000000000000000000000000815260040161053190611074565b60405180910390fd5b5f836006015f3373ffffffffffffffffffffffffffffffffffffffff1673ffffffffffffffffffffffffffffffffffffffff1681526020019081526020015f20819055503373ffffffffffffffffffffffffffffffffffffffff166108fc8290811502906040515f60405180830381858888f193505050501580156105c1573d5f803e3d5ffd5b5050505050565b60015481565b8051825114610612576040517f08c379a0000000000000000000000000000000000000000000000000000000008152600401610609906110dc565b60405180910390fd5b5f805f60015f815480929190610627906110fa565b9190505581526020019081526020015f20905083815f01908161064a91906112de565b50828160010190805190602001906106639291906106b0565b508181600201908051906020019061067c929190610707565b505f81600301819055505f816004015f6101000a81548160ff0219169083151502179055505f816005018190555050505050565b828054828255905f5260205f209081019282156106f6579160200282015b828111156106f55782518290816106e591906112de565b50916020019190600101906106ce565b5b5090506107039190610752565b5090565b828054828255905f5260205f20908101928215610741579160200282015b82811115610740578251825591602001919060010190610725565b5b50905061074e9190610775565b5090565b5b80821115610771575f81816107689190610790565b50600101610753565b5090565b5b8082111561078c575f815f905550600101610776565b5090565b50805461079c90610d2f565b5f825580601f106107ad57506107ca565b601f0160209004905f5260205f20908101906107c99190610775565b5b50565b5f604051905090565b5f80fd5b5f80fd5b5f819050919050565b6107f0816107de565b81146107fa575f80fd5b50565b5f8135905061080b816107e7565b92915050565b5f60208284031215610826576108256107d6565b5b5f610833848285016107fd565b91505092915050565b5f81519050919050565b5f82825260208201905092915050565b5f5b83811015610873578082015181840152602081019050610858565b5f8484015250505050565b5f601f19601f8301169050919050565b5f6108988261083c565b6108a28185610846565b93506108b2818560208601610856565b6108bb8161087e565b840191505092915050565b6108cf816107de565b82525050565b5f8115159050919050565b6108e9816108d5565b82525050565b5f6080820190508181035f830152610907818761088e565b905061091660208301866108c6565b61092360408301856108e0565b61093060608301846108c6565b95945050505050565b5f806040838503121561094f5761094e6107d6565b5b5f61095c858286016107fd565b925050602061096d858286016107fd565b9150509250929050565b5f60208201905061098a5f8301846108c6565b92915050565b5f80fd5b5f80fd5b7f4e487b71000000000000000000000000000000000000000000000000000000005f52604160045260245ffd5b6109ce8261087e565b810181811067ffffffffffffffff821117156109ed576109ec610998565b5b80604052505050565b5f6109ff6107cd565b9050610a0b82826109c5565b919050565b5f67ffffffffffffffff821115610a2a57610a29610998565b5b610a338261087e565b9050602081019050919050565b828183375f83830152505050565b5f610a60610a5b84610a10565b6109f6565b905082815260208101848484011115610a7c57610a7b610994565b5b610a87848285610a40565b509392505050565b5f82601f830112610aa357610aa2610990565b5b8135610ab3848260208601610a4e565b91505092915050565b5f67ffffffffffffffff821115610ad657610ad5610998565b5b602082029050602081019050919050565b5f80fd5b5f610afd610af884610abc565b6109f6565b90508083825260208201905060208402830185811115610b2057610b1f610ae7565b5b835b81811015610b6757803567ffffffffffffffff811115610b4557610b44610990565b5b808601610b528982610a8f565b85526020850194505050602081019050610b22565b5050509392505050565b5f82601f830112610b8557610b84610990565b5b8135610b95848260208601610aeb565b91505092915050565b5f67ffffffffffffffff821115610bb857610bb7610998565b5b602082029050602081019050919050565b5f610bdb610bd684610b9e565b6109f6565b90508083825260208201905060208402830185811115610bfe57610bfd610ae7565b5b835b81811015610c275780610c1388826107fd565b845260208401935050602081019050610c00565b5050509392505050565b5f82601f830112610c4557610c44610990565b5b8135610c55848260208601610bc9565b91505092915050565b5f805f60608486031215610c7557610c746107d6565b5b5f84013567ffffffffffffffff811115610c9257610c916107da565b5b610c9e86828701610a8f565b935050602084013567ffffffffffffffff811115610cbf57610cbe6107da565b5b610ccb86828701610b71565b925050604084013567ffffffffffffffff811115610cec57610ceb6107da565b5b610cf886828701610c31565b9150509250925092565b7f4e487b71000000000000000000000000000000000000000000000000000000005f52602260045260245ffd5b5f6002820490506001821680610d4657607f821691505b602082108103610d5957610d58610d02565b5b50919050565b7f4576656e7420616c726561647920636c6f7365640000000000000000000000005f82015250565b5f610d93601483610846565b9150610d9e82610d5f565b602082019050919050565b5f6020820190508181035f830152610dc081610d87565b9050919050565b7f4576656e7420697320636c6f73656400000000000000000000000000000000005f82015250565b5f610dfb600f83610846565b9150610e0682610dc7565b602082019050919050565b5f6020820190508181035f830152610e2881610def565b9050919050565b7f496e76616c6964206f7574636f6d6500000000000000000000000000000000005f82015250565b5f610e63600f83610846565b9150610e6e82610e2f565b602082019050919050565b5f6020820190508181035f830152610e9081610e57565b9050919050565b7f4e487b71000000000000000000000000000000000000000000000000000000005f52601160045260245ffd5b5f610ece826107de565b9150610ed9836107de565b9250828201905080821115610ef157610ef0610e97565b5b92915050565b7f4576656e74206973206e6f7420636c6f736564207965740000000000000000005f82015250565b5f610f2b601783610846565b9150610f3682610ef7565b602082019050919050565b5f6020820190508181035f830152610f5881610f1f565b9050919050565b7f4e487b71000000000000000000000000000000000000000000000000000000005f52603260045260245ffd5b5f610f96826107de565b9150610fa1836107de565b9250828202610faf816107de565b91508282048414831517610fc657610fc5610e97565b5b5092915050565b7f4e487b71000000000000000000000000000000000000000000000000000000005f52601260045260245ffd5b5f611004826107de565b915061100f836107de565b92508261101f5761101e610fcd565b5b828204905092915050565b7f4e6f2077696e6e696e677320746f20636c61696d0000000000000000000000005f82015250565b5f61105e601483610846565b91506110698261102a565b602082019050919050565b5f6020820190508181035f83015261108b81611052565b9050919050565b7f4f7574636f6d657320616e64206f646473206d69736d617463680000000000005f82015250565b5f6110c6601a83610846565b91506110d182611092565b602082019050919050565b5f6020820190508181035f8301526110f3816110ba565b9050919050565b5f611104826107de565b91507fffffffffffffffffffffffffffffffffffffffffffffffffffffffffffffffff820361113657611135610e97565b5b600182019050919050565b5f819050815f5260205f209050919050565b5f6020601f8301049050919050565b5f82821b905092915050565b5f6008830261119d7fffffffffffffffffffffffffffffffffffffffffffffffffffffffffffffffff82611162565b6111a78683611162565b95508019841693508086168417925050509392505050565b5f819050919050565b5f6111e26111dd6111d8846107de565b6111bf565b6107de565b9050919050565b5f819050919050565b6111fb836111c8565b61120f611207826111e9565b84845461116e565b825550505050565b5f90565b611223611217565b61122e8184846111f2565b505050565b5b81811015611251576112465f8261121b565b600181019050611234565b5050565b601f8211156112965761126781611141565b61127084611153565b8101602085101561127f578190505b61129361128b85611153565b830182611233565b50505b505050565b5f82821c905092915050565b5f6112b65f198460080261129b565b1980831691505092915050565b5f6112ce83836112a7565b9150826002028217905092915050565b6112e78261083c565b67ffffffffffffffff811115611300576112ff610998565b5b61130a8254610d2f565b611315828285611255565b5f60209050601f831160018114611346575f8415611334578287015190505b61133e85826112c3565b8655506113a5565b601f19841661135486611141565b5f5b8281101561137b57848901518255600182019150602085019450602081019050611356565b868310156113985784890151611394601f8916826112a7565b8355505b6001600288020188555050505b50505050505056fea2646970667358221220a63a6548f3186bb16544b3365028c09335fd0f1ec770bde489e91b1e9e17b9ca64736f6c63430008150033",
  "immutableReferences": {},
  "source": "// SPDX-License-Identifier: MIT\r\npragma solidity ^0.8.0;\r\n\r\ncontract Betting {\r\n    struct Event {\r\n        string description;\r\n        string[] outcomes;\r\n        uint[] odds;\r\n        uint totalBetAmount;\r\n        bool isClosed;\r\n        uint winningOutcome;\r\n        mapping(address => uint) bets;\r\n    }\r\n\r\n    mapping(uint => Event) public events;\r\n    uint public eventCount;\r\n\r\n    function createEvent(\r\n        string memory _description,\r\n        string[] memory _outcomes,\r\n        uint[] memory _odds\r\n    ) public {\r\n        require(_outcomes.length == _odds.length, \"Outcomes and odds mismatch\");\r\n\r\n        // Criao do evento no armazenamento\r\n        Event storage newEvent = events[eventCount++];\r\n        newEvent.description = _description;\r\n        newEvent.outcomes = _outcomes;\r\n        newEvent.odds = _odds;\r\n        newEvent.totalBetAmount = 0;\r\n        newEvent.isClosed = false;\r\n        newEvent.winningOutcome = 0;\r\n    }\r\n\r\n    function placeBet(uint _eventId, uint _outcome) public payable {\r\n        Event storage bettingEvent = events[_eventId];\r\n        require(!bettingEvent.isClosed, \"Event is closed\");\r\n        require(_outcome < bettingEvent.outcomes.length, \"Invalid outcome\");\r\n\r\n        bettingEvent.bets[msg.sender] += msg.value;\r\n        bettingEvent.totalBetAmount += msg.value;\r\n    }\r\n\r\n    function closeEvent(uint _eventId, uint _winningOutcome) public {\r\n        Event storage bettingEvent = events[_eventId];\r\n        require(!bettingEvent.isClosed, \"Event already closed\");\r\n\r\n        bettingEvent.isClosed = true;\r\n        bettingEvent.winningOutcome = _winningOutcome;\r\n    }\r\n\r\n    function claimWinnings(uint _eventId) public {\r\n        Event storage bettingEvent = events[_eventId];\r\n        require(bettingEvent.isClosed, \"Event is not closed yet\");\r\n        require(bettingEvent.winningOutcome < bettingEvent.outcomes.length, \"Invalid outcome\");\r\n\r\n        uint userBet = bettingEvent.bets[msg.sender];\r\n        uint userWinnings = (userBet * bettingEvent.odds[bettingEvent.winningOutcome]) / 1 ether;\r\n\r\n        require(userWinnings > 0, \"No winnings to claim\");\r\n\r\n        bettingEvent.bets[msg.sender] = 0;\r\n        payable(msg.sender).transfer(userWinnings);\r\n    }\r\n}\r\n",
  "sourcePath": "C:\\Users\\teus_\\Documents\\Redes-P3\\contracts\\Betting.sol",
  "compiler": {
    "name": "solc",
    "version": "0.8.21+commit.d9974bed.Emscripten.clang"
  },
  "schemaVersion": "3.4.16",
  "updatedAt": "2024-12-16T18:23:04.173Z",
  "devdoc": {
    "kind": "dev",
    "methods": {},
    "version": 1
  },
  "userdoc": {
    "kind": "user",
    "methods": {},
    "version": 1
  }
}